{
  "contractName": "UBSComplianceApp",
  "abi": [
    {
      "constant": true,
      "inputs": [
        {
          "name": "",
          "type": "address"
        }
      ],
      "name": "customerDatabase",
      "outputs": [
        {
          "name": "customer",
          "type": "address"
        },
        {
          "name": "name",
          "type": "string"
        },
        {
          "name": "age",
          "type": "uint8"
        },
        {
          "name": "mediaScore",
          "type": "uint8"
        },
        {
          "name": "ses",
          "type": "uint8"
        },
        {
          "name": "risk",
          "type": "uint8"
        }
      ],
      "payable": false,
      "stateMutability": "view",
      "type": "function"
    },
    {
      "inputs": [],
      "payable": true,
      "stateMutability": "payable",
      "type": "constructor"
    },
    {
      "constant": false,
      "inputs": [
        {
          "name": "name",
          "type": "string"
        },
        {
          "name": "age",
          "type": "uint8"
        },
        {
          "name": "monthlyIncome",
          "type": "uint256"
        }
      ],
      "name": "addCustomer",
      "outputs": [],
      "payable": false,
      "stateMutability": "nonpayable",
      "type": "function"
    },
    {
      "constant": false,
      "inputs": [
        {
          "name": "monthlyIncome",
          "type": "uint256"
        }
      ],
      "name": "updateSalary",
      "outputs": [],
      "payable": false,
      "stateMutability": "nonpayable",
      "type": "function"
    },
    {
      "constant": false,
      "inputs": [],
      "name": "updateAge",
      "outputs": [
        {
          "name": "",
          "type": "uint8"
        }
      ],
      "payable": false,
      "stateMutability": "nonpayable",
      "type": "function"
    },
    {
      "constant": true,
      "inputs": [
        {
          "name": "customer",
          "type": "address"
        }
      ],
      "name": "getRiskStatus",
      "outputs": [
        {
          "name": "",
          "type": "string"
        }
      ],
      "payable": false,
      "stateMutability": "view",
      "type": "function"
    }
  ],
  "bytecode": "0x6080604052603d600360006101000a81548160ff021916908360ff1602179055506040805190810160405280600981526020017f556e6368616e67656400000000000000000000000000000000000000000000008152506004908051906020019061006b9291906100b1565b50336000806101000a81548173ffffffffffffffffffffffffffffffffffffffff021916908373ffffffffffffffffffffffffffffffffffffffff160217905550610156565b828054600181600116156101000203166002900490600052602060002090601f016020900481019282601f106100f257805160ff1916838001178555610120565b82800160010185558215610120579182015b8281111561011f578251825591602001919060010190610104565b5b50905061012d9190610131565b5090565b61015391905b8082111561014f576000816000905550600101610137565b5090565b90565b6110ee806101656000396000f30060806040526004361061006d576000357c0100000000000000000000000000000000000000000000000000000000900463ffffffff168063680e4e3e146100725780639b4e051c1461012e578063ae09e134146101ae578063c86d89ef146102e1578063ecdb71bf1461030e575b600080fd5b34801561007e57600080fd5b506100b3600480360381019080803573ffffffffffffffffffffffffffffffffffffffff16906020019092919050505061033f565b6040518080602001828103825283818151815260200191508051906020019080838360005b838110156100f35780820151818401526020810190506100d8565b50505050905090810190601f1680156101205780820380516001836020036101000a031916815260200191505b509250505060405180910390f35b34801561013a57600080fd5b506101ac600480360381019080803590602001908201803590602001908080601f0160208091040260200160405190810160405280939291908181526020018383808284378201915050505050509192919290803560ff169060200190929190803590602001909291905050506104c8565b005b3480156101ba57600080fd5b506101ef600480360381019080803573ffffffffffffffffffffffffffffffffffffffff169060200190929190505050610a88565b604051808773ffffffffffffffffffffffffffffffffffffffff1673ffffffffffffffffffffffffffffffffffffffff168152602001806020018660ff1660ff1681526020018560ff1660ff16815260200184600381111561024d57fe5b60ff16815260200183600381111561026157fe5b60ff168152602001828103825287818151815260200191508051906020019080838360005b838110156102a1578082015181840152602081019050610286565b50505050905090810190601f1680156102ce5780820380516001836020036101000a031916815260200191505b5097505050505050505060405180910390f35b3480156102ed57600080fd5b5061030c60048036038101908080359060200190929190505050610bb0565b005b34801561031a57600080fd5b50610323610e0c565b604051808260ff1660ff16815260200191505060405180910390f35b60606000600160008473ffffffffffffffffffffffffffffffffffffffff1673ffffffffffffffffffffffffffffffffffffffff16815260200190815260200160002090506001600381111561039157fe5b8160020160039054906101000a900460ff1660038111156103ae57fe5b14156103b957610425565b600260038111156103c657fe5b8160020160039054906101000a900460ff1660038111156103e357fe5b14156103ee57610424565b6003808111156103fa57fe5b8160020160039054906101000a900460ff16600381111561041757fe5b141561042257610423565b5b5b5b60048054600181600116156101000203166002900480601f0160208091040260200160405190810160405280929190818152602001828054600181600116156101000203166002900480156104bb5780601f10610490576101008083540402835291602001916104bb565b820191906000526020600020905b81548152906001019060200180831161049e57829003601f168201915b5050505050915050919050565b60006104d2610f34565b60001515600260003373ffffffffffffffffffffffffffffffffffffffff1673ffffffffffffffffffffffffffffffffffffffff16815260200190815260200160002060009054906101000a900460ff16151514151561053157600080fd5b600a8385600360009054906101000a900460ff160a60ff160181151561055357fe5b069150838202600360006101000a81548160ff021916908360ff16021790555060c0604051908101604052803373ffffffffffffffffffffffffffffffffffffffff1681526020018681526020018560ff1681526020018360ff168152602001600060038111156105c057fe5b8152602001600060038111156105d257fe5b81525090506001600260003373ffffffffffffffffffffffffffffffffffffffff1673ffffffffffffffffffffffffffffffffffffffff16815260200190815260200160002060006101000a81548160ff02191690831515021790555060088260ff161015156106645760038160a00190600381111561064e57fe5b9081600381111561065b57fe5b815250506106f0565b610bb8831115156106975760018160800190600381111561068157fe5b9081600381111561068e57fe5b815250506106ef565b611770831115156106ca576002816080019060038111156106b457fe5b908160038111156106c157fe5b815250506106ee565b6003816080019060038111156106dc57fe5b908160038111156106e957fe5b815250505b5b5b60098260ff161015156107255760038160a00190600381111561070f57fe5b9081600381111561071c57fe5b815250506108fa565b60068260ff161015156107b75760328460ff161115801561076157506001600381111561074e57fe5b8160800151600381111561075e57fe5b14155b1561078e5760028160a00190600381111561077857fe5b9081600381111561078557fe5b815250506107b2565b60038160a0019060038111156107a057fe5b908160038111156107ad57fe5b815250505b6108f9565b60068260ff1610156108d45760288460ff16111580156107f15750600160038111156107df57fe5b816080015160038111156107ef57fe5b145b1561081a5760028160a00190600381111561080857fe5b9081600381111561081557fe5b815250505b60288460ff161115801561084957506001600381111561083657fe5b8160800151600381111561084657fe5b14155b156108765760018160a00190600381111561086057fe5b9081600381111561086d57fe5b815250506108cf565b60468460ff16111580156108a557506001600381111561089257fe5b816080015160038111156108a257fe5b14155b156108ce5760028160a0019060038111156108bc57fe5b908160038111156108c957fe5b815250505b5b6108f8565b60038160a0019060038111156108e657fe5b908160038111156108f357fe5b815250505b5b5b80600160003373ffffffffffffffffffffffffffffffffffffffff1673ffffffffffffffffffffffffffffffffffffffff16815260200190815260200160002060008201518160000160006101000a81548173ffffffffffffffffffffffffffffffffffffffff021916908373ffffffffffffffffffffffffffffffffffffffff160217905550602082015181600101908051906020019061099d929190610f9d565b5060408201518160020160006101000a81548160ff021916908360ff16021790555060608201518160020160016101000a81548160ff021916908360ff16021790555060808201518160020160026101000a81548160ff02191690836003811115610a0457fe5b021790555060a08201518160020160036101000a81548160ff02191690836003811115610a2d57fe5b02179055509050506040805190810160405280600781526020017f4368616e6765640000000000000000000000000000000000000000000000000081525060049080519060200190610a8092919061101d565b505050505050565b60016020528060005260406000206000915090508060000160009054906101000a900473ffffffffffffffffffffffffffffffffffffffff1690806001018054600181600116156101000203166002900480601f016020809104026020016040519081016040528092919081815260200182805460018160011615610100020316600290048015610b5a5780601f10610b2f57610100808354040283529160200191610b5a565b820191906000526020600020905b815481529060010190602001808311610b3d57829003601f168201915b5050505050908060020160009054906101000a900460ff16908060020160019054906101000a900460ff16908060020160029054906101000a900460ff16908060020160039054906101000a900460ff16905086565b600060011515600260003373ffffffffffffffffffffffffffffffffffffffff1673ffffffffffffffffffffffffffffffffffffffff16815260200190815260200160002060009054906101000a900460ff161515141515610c1157600080fd5b600160003373ffffffffffffffffffffffffffffffffffffffff1673ffffffffffffffffffffffffffffffffffffffff1681526020019081526020016000209050610bb882111515610c885760018160020160026101000a81548160ff02191690836003811115610c7e57fe5b0217905550610ce6565b61177082111515610cbe5760028160020160026101000a81548160ff02191690836003811115610cb457fe5b0217905550610ce5565b60038160020160026101000a81548160ff02191690836003811115610cdf57fe5b02179055505b5b60288160020160009054906101000a900460ff1660ff1611158015610d33575060016003811115610d1357fe5b8160020160029054906101000a900460ff166003811115610d3057fe5b14155b15610d635760018160020160036101000a81548160ff02191690836003811115610d5957fe5b0217905550610e08565b603c8160020160009054906101000a900460ff1660ff1611158015610db0575060016003811115610d9057fe5b8160020160029054906101000a900460ff166003811115610dad57fe5b14155b15610de05760028160020160036101000a81548160ff02191690836003811115610dd657fe5b0217905550610e07565b60038160020160036101000a81548160ff02191690836003811115610e0157fe5b02179055505b5b5050565b600060011515600260003373ffffffffffffffffffffffffffffffffffffffff1673ffffffffffffffffffffffffffffffffffffffff16815260200190815260200160002060009054906101000a900460ff161515141515610e6d57600080fd5b600160003373ffffffffffffffffffffffffffffffffffffffff1673ffffffffffffffffffffffffffffffffffffffff168152602001908152602001600020600201600081819054906101000a900460ff168092919060010191906101000a81548160ff021916908360ff16021790555050600160003373ffffffffffffffffffffffffffffffffffffffff1673ffffffffffffffffffffffffffffffffffffffff16815260200190815260200160002060020160009054906101000a900460ff16905090565b60c060405190810160405280600073ffffffffffffffffffffffffffffffffffffffff16815260200160608152602001600060ff168152602001600060ff16815260200160006003811115610f8557fe5b815260200160006003811115610f9757fe5b81525090565b828054600181600116156101000203166002900490600052602060002090601f016020900481019282601f10610fde57805160ff191683800117855561100c565b8280016001018555821561100c579182015b8281111561100b578251825591602001919060010190610ff0565b5b509050611019919061109d565b5090565b828054600181600116156101000203166002900490600052602060002090601f016020900481019282601f1061105e57805160ff191683800117855561108c565b8280016001018555821561108c579182015b8281111561108b578251825591602001919060010190611070565b5b509050611099919061109d565b5090565b6110bf91905b808211156110bb5760008160009055506001016110a3565b5090565b905600a165627a7a72305820149b7806eeb6f1670e4e71288d0a6e6b1ecdeedb13022f0fc96b095ef815f9a50029",
  "source": "pragma solidity ^0.4.23;\n\ncontract UBSComplianceApp{\n    address owner;\n    mapping (address => Customer) public customerDatabase;\n    mapping (address => bool) private oneAccountChecker;\n    uint8 randomizer = 61;\n\n    enum AssetClass{\n        Unverified, LowSES, MediumSES, HighSES\n    }\n    enum RiskFactor{\n        Unverified, LowRisk, MediumRisk, HighRisk\n    }\n\n    struct Customer{\n        address customer;\n        string name;\n        //string nationality; nationality can be added if necessary\n        uint8 age;\n        uint8 mediaScore;\n        AssetClass ses;\n        RiskFactor risk;\n    }\n\n    constructor() public payable{ //payable to ensure liquidity of application\n        owner = msg.sender; \n    }\n\n    string tempVar = \"Unchanged\";\n    function addCustomer(string name, uint8 age, uint monthlyIncome) public {\n\n        require(oneAccountChecker[msg.sender] == false); //prevent DDOS attacks\n        uint8  mediaScore = uint8((randomizer**age+monthlyIncome)%10);\n        randomizer = mediaScore*age;\n        Customer memory c = Customer(msg.sender, name, age, mediaScore, AssetClass.Unverified,RiskFactor.Unverified);\n        oneAccountChecker[msg.sender] = true;\n        //Simulate oracle retrieval of value, Customer clear KYC media check\n        if (mediaScore >= 8){\n            c.risk = RiskFactor.HighRisk;\n        }\n        else{\n            if (monthlyIncome <= 3000){\n                c.ses = AssetClass.LowSES;\n            }\n            else if (monthlyIncome <= 6000){\n                c.ses = AssetClass.MediumSES;\n            }\n            else{\n                c.ses = AssetClass.HighSES;\n            }\n        }\n        if (mediaScore >= 9){\n            c.risk = RiskFactor.HighRisk;\n        }\n        else if (mediaScore >= 6){\n            if (age <= 50 && c.ses != AssetClass.LowSES){\n                c.risk = RiskFactor.MediumRisk;\n            }\n            else {\n                c.risk = RiskFactor.HighRisk;\n            }\n        }\n        else if (mediaScore < 6){\n            if (age <= 40 && c.ses == AssetClass.LowSES){\n                c.risk = RiskFactor.MediumRisk;\n            }\n            if (age <= 40 && c.ses != AssetClass.LowSES){\n                c.risk = RiskFactor.LowRisk;\n            }\n            else if (age <= 70 && c.ses != AssetClass.LowSES){\n                c.risk = RiskFactor.MediumRisk;\n            }\n        }\n        else {\n            c.risk = RiskFactor.HighRisk;\n        }\n        customerDatabase[msg.sender] = c;\n        tempVar = \"Changed\";\n\n    }\n\n    function updateSalary(uint monthlyIncome) public{\n        require(oneAccountChecker[msg.sender] == true);\n        Customer storage c = customerDatabase[msg.sender];\n        if (monthlyIncome <= 3000){\n            c.ses = AssetClass.LowSES;\n        }\n        else if (monthlyIncome <= 6000){\n            c.ses = AssetClass.MediumSES;\n        }\n        else{\n            c.ses = AssetClass.HighSES;\n        }\n        if (c.age <= 40 && c.ses != AssetClass.LowSES){\n            c.risk = RiskFactor.LowRisk;\n        }\n        else if (c.age <= 60 && c.ses != AssetClass.LowSES){\n            c.risk = RiskFactor.MediumRisk;\n        }\n        else {\n            c.risk = RiskFactor.HighRisk;\n        }\n    }\n    function updateAge() public returns (uint8){\n        require(oneAccountChecker[msg.sender] == true);\n        customerDatabase[msg.sender].age++;\n        return customerDatabase[msg.sender].age;\n    }\n    \n    function getRiskStatus(address customer) view public returns (string) {\n        Customer storage c = customerDatabase[customer];\n        if (c.risk == RiskFactor.LowRisk){\n//            return \"Customer has low risk profile\";\n        }\n        else if (c.risk == RiskFactor.MediumRisk){\n//            return \"Customer has medium risk profile\";\n        }\n        else if (c.risk == RiskFactor.HighRisk){\n//            return \"Customer has HIGH risk profile\";\n        }\n        else{\n//            return \"Customer is still unverified\";\n        }\n        return tempVar;\n    }\n}\n",
  "sourcePath": "/Users/admin/JPMC/TestingEnv/TruffleTest/workspace/myproject/contracts/UBSComplianceApp.sol",
  "compiler": {
    "name": "solc",
    "version": "0.4.24+commit.e67f0147.Emscripten.clang"
  },
  "schemaVersion": "2.0.1",
  "updatedAt": "2018-07-10T16:08:54.460Z"
}